{
  "address": "0x241aaa30f4Af6437C69218FeCEAe5300c3445C82",
  "abi": [
    {
      "inputs": [
        {
          "internalType": "contract IEntryPoint",
          "name": "_entryPoint",
          "type": "address"
        }
      ],
      "stateMutability": "nonpayable",
      "type": "constructor"
    },
    {
      "inputs": [],
      "name": "accountImplementation",
      "outputs": [
        {
          "internalType": "contract ComplexAccount",
          "name": "",
          "type": "address"
        }
      ],
      "stateMutability": "view",
      "type": "function"
    },
    {
      "inputs": [
        {
          "internalType": "address",
          "name": "owner",
          "type": "address"
        },
        {
          "internalType": "uint256",
          "name": "salt",
          "type": "uint256"
        },
        {
          "internalType": "bytes32",
          "name": "_merkleRoot",
          "type": "bytes32"
        }
      ],
      "name": "createAccount",
      "outputs": [
        {
          "internalType": "contract ComplexAccount",
          "name": "ret",
          "type": "address"
        }
      ],
      "stateMutability": "nonpayable",
      "type": "function"
    },
    {
      "inputs": [
        {
          "internalType": "address",
          "name": "owner",
          "type": "address"
        },
        {
          "internalType": "uint256",
          "name": "salt",
          "type": "uint256"
        },
        {
          "internalType": "bytes32",
          "name": "_merkleRoot",
          "type": "bytes32"
        }
      ],
      "name": "getAddress",
      "outputs": [
        {
          "internalType": "address",
          "name": "",
          "type": "address"
        }
      ],
      "stateMutability": "view",
      "type": "function"
    }
  ],
  "transactionHash": "0x57a63176cc1201cb2590201235dc4083b8516fbb9666d62d16fbbdab1739dcf1",
  "args": [
    "0x56c0C5c8aaCD04952f077E1229D883b99E850d91"
  ],
  "numDeployments": 1,
  "solcInputHash": "9f66b72200c052eba28e158df403ce0d",
  "bytecode": "0x60a060405234801561001057600080fd5b5060405161356438038061356483398101604081905261002f91610088565b8060405161003c9061007b565b6001600160a01b039091168152602001604051809103906000f080158015610068573d6000803e3d6000fd5b506001600160a01b0316608052506100b8565b6127c480610da083390190565b60006020828403121561009a57600080fd5b81516001600160a01b03811681146100b157600080fd5b9392505050565b608051610cc06100e060003960008181604b0152818161012d01526102960152610cc06000f3fe608060405234801561001057600080fd5b50600436106100415760003560e01c806311464fbe1461004657806341e55bef1461009657806373697ee6146100a9575b600080fd5b61006d7f000000000000000000000000000000000000000000000000000000000000000081565b60405173ffffffffffffffffffffffffffffffffffffffff909116815260200160405180910390f35b61006d6100a43660046103ae565b6100bc565b61006d6100b73660046103ae565b610236565b600061022c8360001b604051806020016100d5906103a1565b7fffffffffffffffffffffffffffffffffffffffffffffffffffffffffffffffe082820381018352601f90910116604081905273ffffffffffffffffffffffffffffffffffffffff88166024820152604481018690527f000000000000000000000000000000000000000000000000000000000000000090606401604080517fffffffffffffffffffffffffffffffffffffffffffffffffffffffffffffffe0818403018152918152602080830180517bffffffffffffffffffffffffffffffffffffffffffffffffffffffff167fbe13f47c0000000000000000000000000000000000000000000000000000000017905290516101d59392910161042c565b604080517fffffffffffffffffffffffffffffffffffffffffffffffffffffffffffffffe081840301815290829052610211929160200161049a565b6040516020818303038152906040528051906020012061036f565b90505b9392505050565b6000806102448585856100bc565b905073ffffffffffffffffffffffffffffffffffffffff81163b801561026c5750905061022f565b60405173ffffffffffffffffffffffffffffffffffffffff871660248201526044810185905285907f000000000000000000000000000000000000000000000000000000000000000090606401604080517fffffffffffffffffffffffffffffffffffffffffffffffffffffffffffffffe08184030181529181526020820180517bffffffffffffffffffffffffffffffffffffffffffffffffffffffff167fbe13f47c0000000000000000000000000000000000000000000000000000000017905251610339906103a1565b61034492919061042c565b8190604051809103906000f5905080158015610364573d6000803e3d6000fd5b509695505050505050565b600061022f8383306000604051836040820152846020820152828152600b8101905060ff815360559020949350505050565b6107c1806104ca83390190565b6000806000606084860312156103c357600080fd5b833573ffffffffffffffffffffffffffffffffffffffff811681146103e757600080fd5b95602085013595506040909401359392505050565b60005b838110156104175781810151838201526020016103ff565b83811115610426576000848401525b50505050565b73ffffffffffffffffffffffffffffffffffffffff8316815260406020820152600082518060408401526104678160608501602087016103fc565b601f017fffffffffffffffffffffffffffffffffffffffffffffffffffffffffffffffe016919091016060019392505050565b600083516104ac8184602088016103fc565b8351908301906104c08183602088016103fc565b0194935050505056fe60806040526040516107c13803806107c183398101604081905261002291610321565b61002e82826000610035565b505061043e565b61003e8361006b565b60008251118061004b5750805b156100665761006483836100ab60201b6100291760201c565b505b505050565b610074816100d7565b6040516001600160a01b038216907fbc7cd75a20ee27fd9adebab32041f755214dbc6bffa90cc0225b39da2e5c2d3b90600090a250565b60606100d0838360405180606001604052806027815260200161079a602791396101a9565b9392505050565b6100ea8161022260201b6100551760201c565b6101515760405162461bcd60e51b815260206004820152602d60248201527f455243313936373a206e657720696d706c656d656e746174696f6e206973206e60448201526c1bdd08184818dbdb9d1c9858dd609a1b60648201526084015b60405180910390fd5b806101887f360894a13ba1a3210667c828492db98dca3e2076cc3735a920a3ca505d382bbc60001b61023160201b6100711760201c565b80546001600160a01b0319166001600160a01b039290921691909117905550565b6060600080856001600160a01b0316856040516101c691906103ef565b600060405180830381855af49150503d8060008114610201576040519150601f19603f3d011682016040523d82523d6000602084013e610206565b606091505b50909250905061021886838387610234565b9695505050505050565b6001600160a01b03163b151590565b90565b606083156102a357825160000361029c576001600160a01b0385163b61029c5760405162461bcd60e51b815260206004820152601d60248201527f416464726573733a2063616c6c20746f206e6f6e2d636f6e74726163740000006044820152606401610148565b50816102ad565b6102ad83836102b5565b949350505050565b8151156102c55781518083602001fd5b8060405162461bcd60e51b8152600401610148919061040b565b634e487b7160e01b600052604160045260246000fd5b60005b838110156103105781810151838201526020016102f8565b838111156100645750506000910152565b6000806040838503121561033457600080fd5b82516001600160a01b038116811461034b57600080fd5b60208401519092506001600160401b038082111561036857600080fd5b818501915085601f83011261037c57600080fd5b81518181111561038e5761038e6102df565b604051601f8201601f19908116603f011681019083821181831017156103b6576103b66102df565b816040528281528860208487010111156103cf57600080fd5b6103e08360208301602088016102f5565b80955050505050509250929050565b600082516104018184602087016102f5565b9190910192915050565b602081526000825180602084015261042a8160408501602087016102f5565b601f01601f19169190910160400192915050565b61034d8061044d6000396000f3fe60806040523661001357610011610017565b005b6100115b610027610022610074565b6100b9565b565b606061004e83836040518060600160405280602781526020016102f1602791396100dd565b9392505050565b73ffffffffffffffffffffffffffffffffffffffff163b151590565b90565b60006100b47f360894a13ba1a3210667c828492db98dca3e2076cc3735a920a3ca505d382bbc5473ffffffffffffffffffffffffffffffffffffffff1690565b905090565b3660008037600080366000845af43d6000803e8080156100d8573d6000f35b3d6000fd5b60606000808573ffffffffffffffffffffffffffffffffffffffff16856040516101079190610283565b600060405180830381855af49150503d8060008114610142576040519150601f19603f3d011682016040523d82523d6000602084013e610147565b606091505b509150915061015886838387610162565b9695505050505050565b606083156101fd5782516000036101f65773ffffffffffffffffffffffffffffffffffffffff85163b6101f6576040517f08c379a000000000000000000000000000000000000000000000000000000000815260206004820152601d60248201527f416464726573733a2063616c6c20746f206e6f6e2d636f6e747261637400000060448201526064015b60405180910390fd5b5081610207565b610207838361020f565b949350505050565b81511561021f5781518083602001fd5b806040517f08c379a00000000000000000000000000000000000000000000000000000000081526004016101ed919061029f565b60005b8381101561026e578181015183820152602001610256565b8381111561027d576000848401525b50505050565b60008251610295818460208701610253565b9190910192915050565b60208152600082518060208401526102be816040850160208701610253565b601f017fffffffffffffffffffffffffffffffffffffffffffffffffffffffffffffffe016919091016040019291505056fe416464726573733a206c6f772d6c6576656c2064656c65676174652063616c6c206661696c6564a26469706673582212201cd78ab6a31213989661cff2d7d05fc9b9c38b1a848e8249e2e398659a9eb7e364736f6c634300080f0033416464726573733a206c6f772d6c6576656c2064656c65676174652063616c6c206661696c6564a2646970667358221220a653d2221fd9fbe0a6723c7eeffe466575d40d4b550d1f4d3c353b2573d42f3864736f6c634300080f003360c0604052306080523480156200001557600080fd5b50604051620027c4380380620027c4833981016040819052620000389162000118565b6001600160a01b03811660a0526200004f62000056565b506200014a565b600054610100900460ff1615620000c35760405162461bcd60e51b815260206004820152602760248201527f496e697469616c697a61626c653a20636f6e747261637420697320696e697469604482015266616c697a696e6760c81b606482015260840160405180910390fd5b60005460ff908116101562000116576000805460ff191660ff9081179091556040519081527f7f26b83ff96e1f2b6a682f133852f6798a09c465da95921460cefb38474024989060200160405180910390a15b565b6000602082840312156200012b57600080fd5b81516001600160a01b03811681146200014357600080fd5b9392505050565b60805160a05161260e620001b6600039600081816102bc015281816106a50152818161074c01528181610deb01528181610eb70152818161120e01526117a60152600081816104700152818161052001528181610810015281816108c00152610a09015261260e6000f3fe6080604052600436106100f75760003560e01c806352d1902d1161008a578063b0d691fe11610059578063b0d691fe146102ad578063b61d27f6146102e0578063be13f47c14610300578063c399ec881461032057600080fd5b806352d1902d146101f357806373c71560146102085780638da5cb5b14610228578063affed0e01461028a57600080fd5b80634a58db19116100c65780634a58db191461018e5780634ca4ed1a146101965780634d44560d146101c05780634f1ef286146101e057600080fd5b806318dfb3c7146101035780632eb4a7ab146101255780633659cfe61461014e5780633a871cdd1461016e57600080fd5b366100fe57005b600080fd5b34801561010f57600080fd5b5061012361011e366004611ec9565b610335565b005b34801561013157600080fd5b5061013b60035481565b6040519081526020015b60405180910390f35b34801561015a57600080fd5b50610123610169366004611f57565b610459565b34801561017a57600080fd5b5061013b610189366004611f74565b61065e565b6101236106a3565b3480156101a257600080fd5b506002546101b09060ff1681565b6040519015158152602001610145565b3480156101cc57600080fd5b506101236101db366004611fc8565b610742565b6101236101ee366004612072565b6107f9565b3480156101ff57600080fd5b5061013b6109ef565b34801561021457600080fd5b50610123610223366004612138565b610adb565b34801561023457600080fd5b50600154610265906c01000000000000000000000000900473ffffffffffffffffffffffffffffffffffffffff1681565b60405173ffffffffffffffffffffffffffffffffffffffff9091168152602001610145565b34801561029657600080fd5b506001546bffffffffffffffffffffffff1661013b565b3480156102b957600080fd5b507f0000000000000000000000000000000000000000000000000000000000000000610265565b3480156102ec57600080fd5b506101236102fb3660046121f4565b610c02565b34801561030c57600080fd5b5061012361031b366004611fc8565b610c51565b34801561032c57600080fd5b5061013b610de7565b61033d610e9f565b8281146103ab576040517f08c379a000000000000000000000000000000000000000000000000000000000815260206004820152601360248201527f77726f6e67206172726179206c656e677468730000000000000000000000000060448201526064015b60405180910390fd5b60005b83811015610452576104408585838181106103cb576103cb61227d565b90506020020160208101906103e09190611f57565b60008585858181106103f4576103f461227d565b905060200281019061040691906122ac565b8080601f016020809104026020016040519081016040528093929190818152602001838380828437600092019190915250610f7292505050565b8061044a81612340565b9150506103ae565b5050505050565b73ffffffffffffffffffffffffffffffffffffffff7f000000000000000000000000000000000000000000000000000000000000000016300361051e576040517f08c379a000000000000000000000000000000000000000000000000000000000815260206004820152602c60248201527f46756e6374696f6e206d7573742062652063616c6c6564207468726f7567682060448201527f64656c656761746563616c6c000000000000000000000000000000000000000060648201526084016103a2565b7f000000000000000000000000000000000000000000000000000000000000000073ffffffffffffffffffffffffffffffffffffffff166105937f360894a13ba1a3210667c828492db98dca3e2076cc3735a920a3ca505d382bbc5473ffffffffffffffffffffffffffffffffffffffff1690565b73ffffffffffffffffffffffffffffffffffffffff1614610636576040517f08c379a000000000000000000000000000000000000000000000000000000000815260206004820152602c60248201527f46756e6374696f6e206d7573742062652063616c6c6564207468726f7567682060448201527f6163746976652070726f7879000000000000000000000000000000000000000060648201526084016103a2565b61063f81610fef565b6040805160008082526020820190925261065b91839190610ff7565b50565b60006106686111f6565b6106728484611295565b905061068160408501856122ac565b90506000036106935761069384611543565b61069c8261160c565b9392505050565b7f00000000000000000000000000000000000000000000000000000000000000006040517fb760faf900000000000000000000000000000000000000000000000000000000815230600482015273ffffffffffffffffffffffffffffffffffffffff919091169063b760faf99034906024016000604051808303818588803b15801561072e57600080fd5b505af1158015610452573d6000803e3d6000fd5b61074a611677565b7f00000000000000000000000000000000000000000000000000000000000000006040517f205c287800000000000000000000000000000000000000000000000000000000815273ffffffffffffffffffffffffffffffffffffffff848116600483015260248201849052919091169063205c287890604401600060405180830381600087803b1580156107dd57600080fd5b505af11580156107f1573d6000803e3d6000fd5b505050505050565b73ffffffffffffffffffffffffffffffffffffffff7f00000000000000000000000000000000000000000000000000000000000000001630036108be576040517f08c379a000000000000000000000000000000000000000000000000000000000815260206004820152602c60248201527f46756e6374696f6e206d7573742062652063616c6c6564207468726f7567682060448201527f64656c656761746563616c6c000000000000000000000000000000000000000060648201526084016103a2565b7f000000000000000000000000000000000000000000000000000000000000000073ffffffffffffffffffffffffffffffffffffffff166109337f360894a13ba1a3210667c828492db98dca3e2076cc3735a920a3ca505d382bbc5473ffffffffffffffffffffffffffffffffffffffff1690565b73ffffffffffffffffffffffffffffffffffffffff16146109d6576040517f08c379a000000000000000000000000000000000000000000000000000000000815260206004820152602c60248201527f46756e6374696f6e206d7573742062652063616c6c6564207468726f7567682060448201527f6163746976652070726f7879000000000000000000000000000000000000000060648201526084016103a2565b6109df82610fef565b6109eb82826001610ff7565b5050565b60003073ffffffffffffffffffffffffffffffffffffffff7f00000000000000000000000000000000000000000000000000000000000000001614610ab6576040517f08c379a000000000000000000000000000000000000000000000000000000000815260206004820152603860248201527f555550535570677261646561626c653a206d757374206e6f742062652063616c60448201527f6c6564207468726f7567682064656c656761746563616c6c000000000000000060648201526084016103a2565b507f360894a13ba1a3210667c828492db98dca3e2076cc3735a920a3ca505d382bbc90565b6040805160208101849052908101829052600090606001604080517fffffffffffffffffffffffffffffffffffffffffffffffffffffffffffffffe081840301815282825280516020918201209083018790529082018190529150600090606001604080517fffffffffffffffffffffffffffffffffffffffffffffffffffffffffffffffe081840301815282825280516020918201209083015201604051602081830303815290604052805190602001209050610b9c8660035483611712565b6107f1576040517f08c379a000000000000000000000000000000000000000000000000000000000815260206004820152600d60248201527f496e76616c69642070726f6f660000000000000000000000000000000000000060448201526064016103a2565b610c0a610e9f565b610c4b848484848080601f016020809104026020016040519081016040528093929190818152602001838380828437600092019190915250610f7292505050565b50505050565b600054610100900460ff1615808015610c715750600054600160ff909116105b80610c8b5750303b158015610c8b575060005460ff166001145b610d17576040517f08c379a000000000000000000000000000000000000000000000000000000000815260206004820152602e60248201527f496e697469616c697a61626c653a20636f6e747261637420697320616c72656160448201527f647920696e697469616c697a656400000000000000000000000000000000000060648201526084016103a2565b600080547fffffffffffffffffffffffffffffffffffffffffffffffffffffffffffffff001660011790558015610d7557600080547fffffffffffffffffffffffffffffffffffffffffffffffffffffffffffff00ff166101001790555b610d7f8383611728565b8015610de257600080547fffffffffffffffffffffffffffffffffffffffffffffffffffffffffffff00ff169055604051600181527f7f26b83ff96e1f2b6a682f133852f6798a09c465da95921460cefb38474024989060200160405180910390a15b505050565b60007f00000000000000000000000000000000000000000000000000000000000000006040517f70a0823100000000000000000000000000000000000000000000000000000000815230600482015273ffffffffffffffffffffffffffffffffffffffff91909116906370a0823190602401602060405180830381865afa158015610e76573d6000803e3d6000fd5b505050506040513d601f19601f82011682018060405250810190610e9a9190612378565b905090565b3373ffffffffffffffffffffffffffffffffffffffff7f0000000000000000000000000000000000000000000000000000000000000000161480610f0a57506001546c01000000000000000000000000900473ffffffffffffffffffffffffffffffffffffffff1633145b610f70576040517f08c379a000000000000000000000000000000000000000000000000000000000815260206004820181905260248201527f6163636f756e743a206e6f74204f776e6572206f7220456e747279506f696e7460448201526064016103a2565b565b6000808473ffffffffffffffffffffffffffffffffffffffff168484604051610f9b91906123bd565b60006040518083038185875af1925050503d8060008114610fd8576040519150601f19603f3d011682016040523d82523d6000602084013e610fdd565b606091505b50915091508161045257805160208201fd5b61065b611677565b7f4910fdfa16fed3260ed0e7147f7cc6da11a60208b5b9406d12a635614ffd91435460ff161561102a57610de2836117f3565b8273ffffffffffffffffffffffffffffffffffffffff166352d1902d6040518163ffffffff1660e01b8152600401602060405180830381865afa9250505080156110af575060408051601f3d9081017fffffffffffffffffffffffffffffffffffffffffffffffffffffffffffffffe01682019092526110ac91810190612378565b60015b61113b576040517f08c379a000000000000000000000000000000000000000000000000000000000815260206004820152602e60248201527f45524331393637557067726164653a206e657720696d706c656d656e7461746960448201527f6f6e206973206e6f74205555505300000000000000000000000000000000000060648201526084016103a2565b7f360894a13ba1a3210667c828492db98dca3e2076cc3735a920a3ca505d382bbc81146111ea576040517f08c379a000000000000000000000000000000000000000000000000000000000815260206004820152602960248201527f45524331393637557067726164653a20756e737570706f727465642070726f7860448201527f6961626c6555554944000000000000000000000000000000000000000000000060648201526084016103a2565b50610de28383836118fd565b3373ffffffffffffffffffffffffffffffffffffffff7f00000000000000000000000000000000000000000000000000000000000000001614610f70576040517f08c379a000000000000000000000000000000000000000000000000000000000815260206004820152601c60248201527f6163636f756e743a206e6f742066726f6d20456e747279506f696e740000000060448201526064016103a2565b6000806112a66101408501856122ac565b6112b5916020916000916123d9565b6112be91612403565b905060006112d06101408601866122ac565b6112df916040916020916123d9565b6112e891612403565b905060006112fa6101408701876122ac565b611309916060916040916123d9565b61131291612403565b905060006113246101408801886122ac565b611333916062916060916123d9565b61133c9161243f565b60f01c905060008167ffffffffffffffff81111561135c5761135c611ff4565b604051908082528060200260200182016040528015611385578160200160208202803683370190505b5090506000805b8361ffff168161ffff16101561141f5760006113a9826020612487565b6113b49060626124b1565b61ffff1690506113c58160206124d7565b92506113d56101408c018c6122ac565b6113e291859184916123d9565b6113eb91612403565b848361ffff16815181106114015761140161227d565b60209081029190910101525080611417816124ef565b91505061138c565b503660006114316101408c018c6122ac565b61143e91859082906123d9565b91509150600061149b8b6040517f19457468657265756d205369676e6564204d6573736167653a0a3332000000006020820152603c8101829052600090605c01604051602081830303815290604052805190602001209050919050565b90506114df83838080601f01602080910402602001604051908101604052809392919081815260200183838082843760009201919091525085939250506119229050565b6001546c01000000000000000000000000900473ffffffffffffffffffffffffffffffffffffffff908116911614611523576001995050505050505050505061153d565b61152f858a8a8a610adb565b600099505050505050505050505b92915050565b600180546020830135916bffffffffffffffffffffffff90911690600061156983612510565b91906101000a8154816bffffffffffffffffffffffff02191690836bffffffffffffffffffffffff1602179055506bffffffffffffffffffffffff161461065b576040517f08c379a000000000000000000000000000000000000000000000000000000000815260206004820152601660248201527f6163636f756e743a20696e76616c6964206e6f6e63650000000000000000000060448201526064016103a2565b801561065b5760405160009033907fffffffffffffffffffffffffffffffffffffffffffffffffffffffffffffffff90849084818181858888f193505050503d8060008114610452576040519150601f19603f3d011682016040523d82523d6000602084013e610452565b6001546c01000000000000000000000000900473ffffffffffffffffffffffffffffffffffffffff163314806116ac57503330145b610f70576040517f08c379a000000000000000000000000000000000000000000000000000000000815260206004820152600a60248201527f6f6e6c79206f776e65720000000000000000000000000000000000000000000060448201526064016103a2565b60008261171f8584611946565b14949350505050565b6002805460017fffffffffffffffffffffffffffffffffffffffffffffffffffffffffffffff00909116811790915580546bffffffffffffffffffffffff166c0100000000000000000000000073ffffffffffffffffffffffffffffffffffffffff85811682029290921792839055600384905560405192048116917f0000000000000000000000000000000000000000000000000000000000000000909116907f67e89dcb7ecc90273966229da95886929d773faab2fba04ec8d14ed4120a4c4890600090a35050565b73ffffffffffffffffffffffffffffffffffffffff81163b611897576040517f08c379a000000000000000000000000000000000000000000000000000000000815260206004820152602d60248201527f455243313936373a206e657720696d706c656d656e746174696f6e206973206e60448201527f6f74206120636f6e74726163740000000000000000000000000000000000000060648201526084016103a2565b7f360894a13ba1a3210667c828492db98dca3e2076cc3735a920a3ca505d382bbc80547fffffffffffffffffffffffff00000000000000000000000000000000000000001673ffffffffffffffffffffffffffffffffffffffff92909216919091179055565b6119068361198b565b6000825111806119135750805b15610de257610c4b83836119d8565b600080600061193185856119fd565b9150915061193e81611a42565b509392505050565b600081815b845181101561193e576119778286838151811061196a5761196a61227d565b6020026020010151611bf5565b91508061198381612340565b91505061194b565b611994816117f3565b60405173ffffffffffffffffffffffffffffffffffffffff8216907fbc7cd75a20ee27fd9adebab32041f755214dbc6bffa90cc0225b39da2e5c2d3b90600090a250565b606061069c83836040518060600160405280602781526020016125b260279139611c24565b6000808251604103611a335760208301516040840151606085015160001a611a2787828585611ca9565b94509450505050611a3b565b506000905060025b9250929050565b6000816004811115611a5657611a56612531565b03611a5e5750565b6001816004811115611a7257611a72612531565b03611ad9576040517f08c379a000000000000000000000000000000000000000000000000000000000815260206004820152601860248201527f45434453413a20696e76616c6964207369676e6174757265000000000000000060448201526064016103a2565b6002816004811115611aed57611aed612531565b03611b54576040517f08c379a000000000000000000000000000000000000000000000000000000000815260206004820152601f60248201527f45434453413a20696e76616c6964207369676e6174757265206c656e6774680060448201526064016103a2565b6003816004811115611b6857611b68612531565b0361065b576040517f08c379a000000000000000000000000000000000000000000000000000000000815260206004820152602260248201527f45434453413a20696e76616c6964207369676e6174757265202773272076616c60448201527f756500000000000000000000000000000000000000000000000000000000000060648201526084016103a2565b6000818310611c1157600082815260208490526040902061069c565b600083815260208390526040902061069c565b60606000808573ffffffffffffffffffffffffffffffffffffffff1685604051611c4e91906123bd565b600060405180830381855af49150503d8060008114611c89576040519150601f19603f3d011682016040523d82523d6000602084013e611c8e565b606091505b5091509150611c9f86838387611d98565b9695505050505050565b6000807f7fffffffffffffffffffffffffffffff5d576e7357a4501ddfe92f46681b20a0831115611ce05750600090506003611d8f565b6040805160008082526020820180845289905260ff881692820192909252606081018690526080810185905260019060a0016020604051602081039080840390855afa158015611d34573d6000803e3d6000fd5b50506040517fffffffffffffffffffffffffffffffffffffffffffffffffffffffffffffffe0015191505073ffffffffffffffffffffffffffffffffffffffff8116611d8857600060019250925050611d8f565b9150600090505b94509492505050565b60608315611e2e578251600003611e275773ffffffffffffffffffffffffffffffffffffffff85163b611e27576040517f08c379a000000000000000000000000000000000000000000000000000000000815260206004820152601d60248201527f416464726573733a2063616c6c20746f206e6f6e2d636f6e747261637400000060448201526064016103a2565b5081611e38565b611e388383611e40565b949350505050565b815115611e505781518083602001fd5b806040517f08c379a00000000000000000000000000000000000000000000000000000000081526004016103a29190612560565b60008083601f840112611e9657600080fd5b50813567ffffffffffffffff811115611eae57600080fd5b6020830191508360208260051b8501011115611a3b57600080fd5b60008060008060408587031215611edf57600080fd5b843567ffffffffffffffff80821115611ef757600080fd5b611f0388838901611e84565b90965094506020870135915080821115611f1c57600080fd5b50611f2987828801611e84565b95989497509550505050565b73ffffffffffffffffffffffffffffffffffffffff8116811461065b57600080fd5b600060208284031215611f6957600080fd5b813561069c81611f35565b600080600060608486031215611f8957600080fd5b833567ffffffffffffffff811115611fa057600080fd5b84016101608187031215611fb357600080fd5b95602085013595506040909401359392505050565b60008060408385031215611fdb57600080fd5b8235611fe681611f35565b946020939093013593505050565b7f4e487b7100000000000000000000000000000000000000000000000000000000600052604160045260246000fd5b604051601f82017fffffffffffffffffffffffffffffffffffffffffffffffffffffffffffffffe016810167ffffffffffffffff8111828210171561206a5761206a611ff4565b604052919050565b6000806040838503121561208557600080fd5b823561209081611f35565b915060208381013567ffffffffffffffff808211156120ae57600080fd5b818601915086601f8301126120c257600080fd5b8135818111156120d4576120d4611ff4565b612104847fffffffffffffffffffffffffffffffffffffffffffffffffffffffffffffffe0601f84011601612023565b9150808252878482850101111561211a57600080fd5b80848401858401376000848284010152508093505050509250929050565b6000806000806080858703121561214e57600080fd5b843567ffffffffffffffff8082111561216657600080fd5b818701915087601f83011261217a57600080fd5b813560208282111561218e5761218e611ff4565b8160051b925061219f818401612023565b828152928401810192818101908b8511156121b957600080fd5b948201945b848610156121d7578535825294820194908201906121be565b9b918a01359a505060408901359860600135975095505050505050565b6000806000806060858703121561220a57600080fd5b843561221581611f35565b935060208501359250604085013567ffffffffffffffff8082111561223957600080fd5b818701915087601f83011261224d57600080fd5b81358181111561225c57600080fd5b88602082850101111561226e57600080fd5b95989497505060200194505050565b7f4e487b7100000000000000000000000000000000000000000000000000000000600052603260045260246000fd5b60008083357fffffffffffffffffffffffffffffffffffffffffffffffffffffffffffffffe18436030181126122e157600080fd5b83018035915067ffffffffffffffff8211156122fc57600080fd5b602001915036819003821315611a3b57600080fd5b7f4e487b7100000000000000000000000000000000000000000000000000000000600052601160045260246000fd5b60007fffffffffffffffffffffffffffffffffffffffffffffffffffffffffffffffff820361237157612371612311565b5060010190565b60006020828403121561238a57600080fd5b5051919050565b60005b838110156123ac578181015183820152602001612394565b83811115610c4b5750506000910152565b600082516123cf818460208701612391565b9190910192915050565b600080858511156123e957600080fd5b838611156123f657600080fd5b5050820193919092039150565b8035602083101561153d577fffffffffffffffffffffffffffffffffffffffffffffffffffffffffffffffff602084900360031b1b1692915050565b7fffff000000000000000000000000000000000000000000000000000000000000813581811691600285101561247f5780818660020360031b1b83161692505b505092915050565b600061ffff808316818516818304811182151516156124a8576124a8612311565b02949350505050565b600061ffff8083168185168083038211156124ce576124ce612311565b01949350505050565b600082198211156124ea576124ea612311565b500190565b600061ffff80831681810361250657612506612311565b6001019392505050565b60006bffffffffffffffffffffffff80831681810361250657612506612311565b7f4e487b7100000000000000000000000000000000000000000000000000000000600052602160045260246000fd5b602081526000825180602084015261257f816040850160208701612391565b601f017fffffffffffffffffffffffffffffffffffffffffffffffffffffffffffffffe016919091016040019291505056fe416464726573733a206c6f772d6c6576656c2064656c65676174652063616c6c206661696c6564a2646970667358221220852a559ceb2c4d45b500f3c77da141d15fa45adb3812fe1ddfe019696cad340564736f6c634300080f0033",
  "devdoc": {
    "kind": "dev",
    "methods": {},
    "version": 1
  },
  "userdoc": {
    "kind": "user",
    "methods": {
      "createAccount(address,uint256,bytes32)": {
        "notice": "create an account, and return its address. returns the address even if the account is already deployed. Note that during UserOperation execution, this method is called only if the account is not deployed. This method returns an existing account address so that entryPoint.getSenderAddress() would work even after account creation"
      },
      "getAddress(address,uint256,bytes32)": {
        "notice": "calculate the counterfactual address of this account as it would be returned by createAccount()"
      }
    },
    "notice": "A sample factory contract for ComplexAccount A UserOperations \"initCode\" holds the address of the factory, and a method call (to createAccount, in this sample factory). The factory's createAccount returns the target account address even if it is already installed. This way, the entryPoint.getSenderAddress() can be called either before or after the account is created.",
    "version": 1
  },
  "storageLayout": {
    "storage": [],
    "types": null
  }
}